{
  "_format": "hh-sol-artifact-1",
  "contractName": "EmployeeManagement",
  "sourceName": "contracts/EmployeeManagement.sol",
  "abi": [
    {
      "anonymous": false,
      "inputs": [
        {
          "indexed": true,
          "internalType": "address",
          "name": "wallet",
          "type": "address"
        },
        {
          "indexed": false,
          "internalType": "string",
          "name": "profileHash",
          "type": "string"
        }
      ],
      "name": "EmployeeRegistered",
      "type": "event"
    },
    {
      "anonymous": false,
      "inputs": [
        {
          "indexed": true,
          "internalType": "address",
          "name": "employee",
          "type": "address"
        },
        {
          "indexed": false,
          "internalType": "uint256",
          "name": "milestoneId",
          "type": "uint256"
        }
      ],
      "name": "MilestoneAchieved",
      "type": "event"
    },
    {
      "anonymous": false,
      "inputs": [
        {
          "indexed": true,
          "internalType": "address",
          "name": "employee",
          "type": "address"
        },
        {
          "indexed": false,
          "internalType": "bytes32",
          "name": "trainingId",
          "type": "bytes32"
        }
      ],
      "name": "TrainingCompleted",
      "type": "event"
    },
    {
      "inputs": [
        {
          "internalType": "string",
          "name": "_description",
          "type": "string"
        }
      ],
      "name": "addMilestone",
      "outputs": [
        {
          "internalType": "uint256",
          "name": "",
          "type": "uint256"
        }
      ],
      "stateMutability": "nonpayable",
      "type": "function"
    },
    {
      "inputs": [
        {
          "internalType": "bytes32",
          "name": "_trainingId",
          "type": "bytes32"
        }
      ],
      "name": "completeTraining",
      "outputs": [],
      "stateMutability": "nonpayable",
      "type": "function"
    },
    {
      "inputs": [
        {
          "internalType": "address",
          "name": "",
          "type": "address"
        }
      ],
      "name": "employees",
      "outputs": [
        {
          "internalType": "address",
          "name": "wallet",
          "type": "address"
        },
        {
          "internalType": "string",
          "name": "profileHash",
          "type": "string"
        },
        {
          "internalType": "uint256",
          "name": "joinDate",
          "type": "uint256"
        },
        {
          "internalType": "bool",
          "name": "isActive",
          "type": "bool"
        }
      ],
      "stateMutability": "view",
      "type": "function"
    },
    {
      "inputs": [
        {
          "internalType": "uint256",
          "name": "",
          "type": "uint256"
        }
      ],
      "name": "milestones",
      "outputs": [
        {
          "internalType": "uint256",
          "name": "id",
          "type": "uint256"
        },
        {
          "internalType": "string",
          "name": "description",
          "type": "string"
        },
        {
          "internalType": "uint256",
          "name": "timestamp",
          "type": "uint256"
        },
        {
          "internalType": "bool",
          "name": "verified",
          "type": "bool"
        }
      ],
      "stateMutability": "view",
      "type": "function"
    },
    {
      "inputs": [
        {
          "internalType": "address",
          "name": "_wallet",
          "type": "address"
        },
        {
          "internalType": "string",
          "name": "_profileHash",
          "type": "string"
        }
      ],
      "name": "registerEmployee",
      "outputs": [],
      "stateMutability": "nonpayable",
      "type": "function"
    },
    {
      "inputs": [
        {
          "internalType": "bytes32",
          "name": "",
          "type": "bytes32"
        }
      ],
      "name": "trainings",
      "outputs": [
        {
          "internalType": "bytes32",
          "name": "id",
          "type": "bytes32"
        },
        {
          "internalType": "string",
          "name": "name",
          "type": "string"
        },
        {
          "internalType": "uint256",
          "name": "deadline",
          "type": "uint256"
        },
        {
          "internalType": "bool",
          "name": "mandatory",
          "type": "bool"
        }
      ],
      "stateMutability": "view",
      "type": "function"
    }
  ],
  "bytecode": "0x608060405234801561001057600080fd5b5061135b806100206000396000f3fe608060405234801561001057600080fd5b50600436106100625760003560e01c8063269faaf4146100675780632bb36ca21461008357806350da4cbe146100b35780638353a2c4146100cf578063d067894714610102578063e89e4ed614610135575b600080fd5b610081600480360381019061007c9190610ad3565b610168565b005b61009d60048036038101906100989190610b2f565b610307565b6040516100aa9190610b91565b60405180910390f35b6100cd60048036038101906100c89190610be2565b6104c2565b005b6100e960048036038101906100e49190610be2565b6106ac565b6040516100f99493929190610cb8565b60405180910390f35b61011c60048036038101906101179190610d04565b610771565b60405161012c9493929190610d40565b60405180910390f35b61014f600480360381019061014a9190610db8565b610856565b60405161015f9493929190610de5565b60405180910390f35b6000808373ffffffffffffffffffffffffffffffffffffffff1673ffffffffffffffffffffffffffffffffffffffff16815260200190815260200160002060030160009054906101000a900460ff16156101f7576040517f08c379a00000000000000000000000000000000000000000000000000000000081526004016101ee90610e7d565b60405180910390fd5b60008060008473ffffffffffffffffffffffffffffffffffffffff1673ffffffffffffffffffffffffffffffffffffffff1681526020019081526020016000209050828160000160006101000a81548173ffffffffffffffffffffffffffffffffffffffff021916908373ffffffffffffffffffffffffffffffffffffffff1602179055508181600101908161028d91906110a9565b5042816002018190555060018160030160006101000a81548160ff0219169083151502179055508273ffffffffffffffffffffffffffffffffffffffff167f7657087667750afe9a0e3b2a3d756e2a2b4f696c3d71141eb99420bcc2f1e231836040516102fa919061117b565b60405180910390a2505050565b60008060003373ffffffffffffffffffffffffffffffffffffffff1673ffffffffffffffffffffffffffffffffffffffff16815260200190815260200160002060030160009054906101000a900460ff16610397576040517f08c379a000000000000000000000000000000000000000000000000000000000815260040161038e906111e9565b60405180910390fd5b600042336040516020016103ac929190611272565b6040516020818303038152906040528051906020012060001c90506000600160008381526020019081526020016000209050818160000181905550838160010190816103f891906110a9565b504281600201819055506000803373ffffffffffffffffffffffffffffffffffffffff1673ffffffffffffffffffffffffffffffffffffffff1681526020019081526020016000206005018290806001815401808255809150506001900390600052602060002001600090919091909150553373ffffffffffffffffffffffffffffffffffffffff167f7332b31a1f64761721ee1838b5e0a6ebef73c4b14923cd830b8fccc291d72b67836040516104b09190610b91565b60405180910390a28192505050919050565b6000803373ffffffffffffffffffffffffffffffffffffffff1673ffffffffffffffffffffffffffffffffffffffff16815260200190815260200160002060030160009054906101000a900460ff16610550576040517f08c379a0000000000000000000000000000000000000000000000000000000008152600401610547906111e9565b60405180910390fd5b6000803373ffffffffffffffffffffffffffffffffffffffff1673ffffffffffffffffffffffffffffffffffffffff168152602001908152602001600020600401600082815260200190815260200160002060009054906101000a900460ff16156105f0576040517f08c379a00000000000000000000000000000000000000000000000000000000081526004016105e7906112ea565b60405180910390fd5b60016000803373ffffffffffffffffffffffffffffffffffffffff1673ffffffffffffffffffffffffffffffffffffffff168152602001908152602001600020600401600083815260200190815260200160002060006101000a81548160ff0219169083151502179055503373ffffffffffffffffffffffffffffffffffffffff167f66f35e6af5b2658d8f008a84bd3c9338a249ab45020926e4f111578ff5c66a58826040516106a1919061130a565b60405180910390a250565b60026020528060005260406000206000915090508060000154908060010180546106d590610ecc565b80601f016020809104026020016040519081016040528092919081815260200182805461070190610ecc565b801561074e5780601f106107235761010080835404028352916020019161074e565b820191906000526020600020905b81548152906001019060200180831161073157829003601f168201915b5050505050908060020154908060030160009054906101000a900460ff16905084565b60006020528060005260406000206000915090508060000160009054906101000a900473ffffffffffffffffffffffffffffffffffffffff16908060010180546107ba90610ecc565b80601f01602080910402602001604051908101604052809291908181526020018280546107e690610ecc565b80156108335780601f1061080857610100808354040283529160200191610833565b820191906000526020600020905b81548152906001019060200180831161081657829003601f168201915b5050505050908060020154908060030160009054906101000a900460ff16905084565b600160205280600052604060002060009150905080600001549080600101805461087f90610ecc565b80601f01602080910402602001604051908101604052809291908181526020018280546108ab90610ecc565b80156108f85780601f106108cd576101008083540402835291602001916108f8565b820191906000526020600020905b8154815290600101906020018083116108db57829003601f168201915b5050505050908060020154908060030160009054906101000a900460ff16905084565b6000604051905090565b600080fd5b600080fd5b600073ffffffffffffffffffffffffffffffffffffffff82169050919050565b600061095a8261092f565b9050919050565b61096a8161094f565b811461097557600080fd5b50565b60008135905061098781610961565b92915050565b600080fd5b600080fd5b6000601f19601f8301169050919050565b7f4e487b7100000000000000000000000000000000000000000000000000000000600052604160045260246000fd5b6109e082610997565b810181811067ffffffffffffffff821117156109ff576109fe6109a8565b5b80604052505050565b6000610a1261091b565b9050610a1e82826109d7565b919050565b600067ffffffffffffffff821115610a3e57610a3d6109a8565b5b610a4782610997565b9050602081019050919050565b82818337600083830152505050565b6000610a76610a7184610a23565b610a08565b905082815260208101848484011115610a9257610a91610992565b5b610a9d848285610a54565b509392505050565b600082601f830112610aba57610ab961098d565b5b8135610aca848260208601610a63565b91505092915050565b60008060408385031215610aea57610ae9610925565b5b6000610af885828601610978565b925050602083013567ffffffffffffffff811115610b1957610b1861092a565b5b610b2585828601610aa5565b9150509250929050565b600060208284031215610b4557610b44610925565b5b600082013567ffffffffffffffff811115610b6357610b6261092a565b5b610b6f84828501610aa5565b91505092915050565b6000819050919050565b610b8b81610b78565b82525050565b6000602082019050610ba66000830184610b82565b92915050565b6000819050919050565b610bbf81610bac565b8114610bca57600080fd5b50565b600081359050610bdc81610bb6565b92915050565b600060208284031215610bf857610bf7610925565b5b6000610c0684828501610bcd565b91505092915050565b610c1881610bac565b82525050565b600081519050919050565b600082825260208201905092915050565b60005b83811015610c58578082015181840152602081019050610c3d565b60008484015250505050565b6000610c6f82610c1e565b610c798185610c29565b9350610c89818560208601610c3a565b610c9281610997565b840191505092915050565b60008115159050919050565b610cb281610c9d565b82525050565b6000608082019050610ccd6000830187610c0f565b8181036020830152610cdf8186610c64565b9050610cee6040830185610b82565b610cfb6060830184610ca9565b95945050505050565b600060208284031215610d1a57610d19610925565b5b6000610d2884828501610978565b91505092915050565b610d3a8161094f565b82525050565b6000608082019050610d556000830187610d31565b8181036020830152610d678186610c64565b9050610d766040830185610b82565b610d836060830184610ca9565b95945050505050565b610d9581610b78565b8114610da057600080fd5b50565b600081359050610db281610d8c565b92915050565b600060208284031215610dce57610dcd610925565b5b6000610ddc84828501610da3565b91505092915050565b6000608082019050610dfa6000830187610b82565b8181036020830152610e0c8186610c64565b9050610e1b6040830185610b82565b610e286060830184610ca9565b95945050505050565b7f456d706c6f79656520616c726561647920657869737473000000000000000000600082015250565b6000610e67601783610c29565b9150610e7282610e31565b602082019050919050565b60006020820190508181036000830152610e9681610e5a565b9050919050565b7f4e487b7100000000000000000000000000000000000000000000000000000000600052602260045260246000fd5b60006002820490506001821680610ee457607f821691505b602082108103610ef757610ef6610e9d565b5b50919050565b60008190508160005260206000209050919050565b60006020601f8301049050919050565b600082821b905092915050565b600060088302610f5f7fffffffffffffffffffffffffffffffffffffffffffffffffffffffffffffffff82610f22565b610f698683610f22565b95508019841693508086168417925050509392505050565b6000819050919050565b6000610fa6610fa1610f9c84610b78565b610f81565b610b78565b9050919050565b6000819050919050565b610fc083610f8b565b610fd4610fcc82610fad565b848454610f2f565b825550505050565b600090565b610fe9610fdc565b610ff4818484610fb7565b505050565b5b818110156110185761100d600082610fe1565b600181019050610ffa565b5050565b601f82111561105d5761102e81610efd565b61103784610f12565b81016020851015611046578190505b61105a61105285610f12565b830182610ff9565b50505b505050565b600082821c905092915050565b600061108060001984600802611062565b1980831691505092915050565b6000611099838361106f565b9150826002028217905092915050565b6110b282610c1e565b67ffffffffffffffff8111156110cb576110ca6109a8565b5b6110d58254610ecc565b6110e082828561101c565b600060209050601f8311600181146111135760008415611101578287015190505b61110b858261108d565b865550611173565b601f19841661112186610efd565b60005b8281101561114957848901518255600182019150602085019450602081019050611124565b868310156111665784890151611162601f89168261106f565b8355505b6001600288020188555050505b505050505050565b600060208201905081810360008301526111958184610c64565b905092915050565b7f4e6f7420616e2061637469766520656d706c6f79656500000000000000000000600082015250565b60006111d3601683610c29565b91506111de8261119d565b602082019050919050565b60006020820190508181036000830152611202816111c6565b9050919050565b6000819050919050565b61122461121f82610b78565b611209565b82525050565b60008160601b9050919050565b60006112428261122a565b9050919050565b600061125482611237565b9050919050565b61126c6112678261094f565b611249565b82525050565b600061127e8285611213565b60208201915061128e828461125b565b6014820191508190509392505050565b7f547261696e696e6720616c726561647920636f6d706c65746564000000000000600082015250565b60006112d4601a83610c29565b91506112df8261129e565b602082019050919050565b60006020820190508181036000830152611303816112c7565b9050919050565b600060208201905061131f6000830184610c0f565b9291505056fea2646970667358221220559a59be319dae81126876ce66b2b0d9f977b73e3bdfd492181865527b18728464736f6c63430008130033",
  "linkReferences": {},
  "deployedLinkReferences": {}
}