{
  "_format": "hh-sol-artifact-1",
  "contractName": "EmployeeManagement",
  "sourceName": "contracts/EmployeeManagement.sol",
  "abi": [
    {
      "anonymous": false,
      "inputs": [
        {
          "indexed": true,
          "internalType": "address",
          "name": "wallet",
          "type": "address"
        },
        {
          "indexed": false,
          "internalType": "string",
          "name": "profileHash",
          "type": "string"
        }
      ],
      "name": "EmployeeRegistered",
      "type": "event"
    },
    {
      "anonymous": false,
      "inputs": [
        {
          "indexed": true,
          "internalType": "address",
          "name": "employee",
          "type": "address"
        },
        {
          "indexed": false,
          "internalType": "uint256",
          "name": "milestoneId",
          "type": "uint256"
        }
      ],
      "name": "MilestoneAchieved",
      "type": "event"
    },
    {
      "anonymous": false,
      "inputs": [
        {
          "indexed": true,
          "internalType": "address",
          "name": "employee",
          "type": "address"
        },
        {
          "indexed": false,
          "internalType": "bytes32",
          "name": "trainingId",
          "type": "bytes32"
        }
      ],
      "name": "TrainingCompleted",
      "type": "event"
    },
    {
      "anonymous": false,
      "inputs": [
        {
          "indexed": true,
          "internalType": "bytes32",
          "name": "id",
          "type": "bytes32"
        },
        {
          "indexed": false,
          "internalType": "string",
          "name": "name",
          "type": "string"
        },
        {
          "indexed": false,
          "internalType": "uint256",
          "name": "deadline",
          "type": "uint256"
        },
        {
          "indexed": false,
          "internalType": "bool",
          "name": "mandatory",
          "type": "bool"
        }
      ],
      "name": "TrainingCreated",
      "type": "event"
    },
    {
      "inputs": [
        {
          "internalType": "string",
          "name": "_description",
          "type": "string"
        }
      ],
      "name": "addMilestone",
      "outputs": [
        {
          "internalType": "uint256",
          "name": "",
          "type": "uint256"
        }
      ],
      "stateMutability": "nonpayable",
      "type": "function"
    },
    {
      "inputs": [
        {
          "internalType": "bytes32",
          "name": "_trainingId",
          "type": "bytes32"
        }
      ],
      "name": "completeTraining",
      "outputs": [],
      "stateMutability": "nonpayable",
      "type": "function"
    },
    {
      "inputs": [
        {
          "internalType": "bytes32",
          "name": "_id",
          "type": "bytes32"
        },
        {
          "internalType": "string",
          "name": "_name",
          "type": "string"
        },
        {
          "internalType": "uint256",
          "name": "_deadline",
          "type": "uint256"
        },
        {
          "internalType": "bool",
          "name": "_mandatory",
          "type": "bool"
        }
      ],
      "name": "createTraining",
      "outputs": [],
      "stateMutability": "nonpayable",
      "type": "function"
    },
    {
      "inputs": [
        {
          "internalType": "address",
          "name": "",
          "type": "address"
        }
      ],
      "name": "employees",
      "outputs": [
        {
          "internalType": "address",
          "name": "wallet",
          "type": "address"
        },
        {
          "internalType": "string",
          "name": "profileHash",
          "type": "string"
        },
        {
          "internalType": "uint256",
          "name": "joinDate",
          "type": "uint256"
        },
        {
          "internalType": "bool",
          "name": "isActive",
          "type": "bool"
        }
      ],
      "stateMutability": "view",
      "type": "function"
    },
    {
      "inputs": [
        {
          "internalType": "uint256",
          "name": "",
          "type": "uint256"
        }
      ],
      "name": "milestones",
      "outputs": [
        {
          "internalType": "uint256",
          "name": "id",
          "type": "uint256"
        },
        {
          "internalType": "string",
          "name": "description",
          "type": "string"
        },
        {
          "internalType": "uint256",
          "name": "timestamp",
          "type": "uint256"
        },
        {
          "internalType": "bool",
          "name": "verified",
          "type": "bool"
        }
      ],
      "stateMutability": "view",
      "type": "function"
    },
    {
      "inputs": [
        {
          "internalType": "address",
          "name": "_wallet",
          "type": "address"
        },
        {
          "internalType": "string",
          "name": "_profileHash",
          "type": "string"
        }
      ],
      "name": "registerEmployee",
      "outputs": [],
      "stateMutability": "nonpayable",
      "type": "function"
    },
    {
      "inputs": [
        {
          "internalType": "bytes32",
          "name": "",
          "type": "bytes32"
        }
      ],
      "name": "trainings",
      "outputs": [
        {
          "internalType": "bytes32",
          "name": "id",
          "type": "bytes32"
        },
        {
          "internalType": "string",
          "name": "name",
          "type": "string"
        },
        {
          "internalType": "uint256",
          "name": "deadline",
          "type": "uint256"
        },
        {
          "internalType": "bool",
          "name": "mandatory",
          "type": "bool"
        }
      ],
      "stateMutability": "view",
      "type": "function"
    }
  ],
  "bytecode": "0x608060405234801561001057600080fd5b506116a7806100206000396000f3fe608060405234801561001057600080fd5b506004361061007d5760003560e01c80638353a2c41161005b5780638353a2c4146100ea578063a54a18c81461011d578063d067894714610139578063e89e4ed61461016c5761007d565b8063269faaf4146100825780632bb36ca21461009e57806350da4cbe146100ce575b600080fd5b61009c60048036038101906100979190610c5a565b61019f565b005b6100b860048036038101906100b39190610cb6565b61033e565b6040516100c59190610d18565b60405180910390f35b6100e860048036038101906100e39190610d69565b6104f9565b005b61010460048036038101906100ff9190610d69565b61073e565b6040516101149493929190610e3f565b60405180910390f35b61013760048036038101906101329190610ee3565b610803565b005b610153600480360381019061014e9190610f66565b6108f8565b6040516101639493929190610fa2565b60405180910390f35b61018660048036038101906101819190610fee565b6109dd565b604051610196949392919061101b565b60405180910390f35b6000808373ffffffffffffffffffffffffffffffffffffffff1673ffffffffffffffffffffffffffffffffffffffff16815260200190815260200160002060030160009054906101000a900460ff161561022e576040517f08c379a0000000000000000000000000000000000000000000000000000000008152600401610225906110b3565b60405180910390fd5b60008060008473ffffffffffffffffffffffffffffffffffffffff1673ffffffffffffffffffffffffffffffffffffffff1681526020019081526020016000209050828160000160006101000a81548173ffffffffffffffffffffffffffffffffffffffff021916908373ffffffffffffffffffffffffffffffffffffffff160217905550818160010190816102c491906112df565b5042816002018190555060018160030160006101000a81548160ff0219169083151502179055508273ffffffffffffffffffffffffffffffffffffffff167f7657087667750afe9a0e3b2a3d756e2a2b4f696c3d71141eb99420bcc2f1e2318360405161033191906113b1565b60405180910390a2505050565b60008060003373ffffffffffffffffffffffffffffffffffffffff1673ffffffffffffffffffffffffffffffffffffffff16815260200190815260200160002060030160009054906101000a900460ff166103ce576040517f08c379a00000000000000000000000000000000000000000000000000000000081526004016103c59061141f565b60405180910390fd5b600042336040516020016103e39291906114a8565b6040516020818303038152906040528051906020012060001c905060006001600083815260200190815260200160002090508181600001819055508381600101908161042f91906112df565b504281600201819055506000803373ffffffffffffffffffffffffffffffffffffffff1673ffffffffffffffffffffffffffffffffffffffff1681526020019081526020016000206005018290806001815401808255809150506001900390600052602060002001600090919091909150553373ffffffffffffffffffffffffffffffffffffffff167f7332b31a1f64761721ee1838b5e0a6ebef73c4b14923cd830b8fccc291d72b67836040516104e79190610d18565b60405180910390a28192505050919050565b6000803373ffffffffffffffffffffffffffffffffffffffff1673ffffffffffffffffffffffffffffffffffffffff16815260200190815260200160002060030160009054906101000a900460ff16610587576040517f08c379a000000000000000000000000000000000000000000000000000000000815260040161057e9061141f565b60405180910390fd5b6000803373ffffffffffffffffffffffffffffffffffffffff1673ffffffffffffffffffffffffffffffffffffffff168152602001908152602001600020600401600082815260200190815260200160002060009054906101000a900460ff1615610627576040517f08c379a000000000000000000000000000000000000000000000000000000000815260040161061e90611520565b60405180910390fd5b6000801b600260008381526020019081526020016000206000015403610682576040517f08c379a00000000000000000000000000000000000000000000000000000000081526004016106799061158c565b60405180910390fd5b60016000803373ffffffffffffffffffffffffffffffffffffffff1673ffffffffffffffffffffffffffffffffffffffff168152602001908152602001600020600401600083815260200190815260200160002060006101000a81548160ff0219169083151502179055503373ffffffffffffffffffffffffffffffffffffffff167f66f35e6af5b2658d8f008a84bd3c9338a249ab45020926e4f111578ff5c66a588260405161073391906115ac565b60405180910390a250565b600260205280600052604060002060009150905080600001549080600101805461076790611102565b80601f016020809104026020016040519081016040528092919081815260200182805461079390611102565b80156107e05780601f106107b5576101008083540402835291602001916107e0565b820191906000526020600020905b8154815290600101906020018083116107c357829003601f168201915b5050505050908060020154908060030160009054906101000a900460ff16905084565b6000801b60026000868152602001908152602001600020600001541461085e576040517f08c379a000000000000000000000000000000000000000000000000000000000815260040161085590611613565b60405180910390fd5b60006002600086815260200190815260200160002090508481600001819055508381600101908161088f91906112df565b50828160020181905550818160030160006101000a81548160ff021916908315150217905550847f87a38857751b9b1f71082c1cf06b63e9a740bea7448fde8096aa9fb2fbd148e58585856040516108e993929190611633565b60405180910390a25050505050565b60006020528060005260406000206000915090508060000160009054906101000a900473ffffffffffffffffffffffffffffffffffffffff169080600101805461094190611102565b80601f016020809104026020016040519081016040528092919081815260200182805461096d90611102565b80156109ba5780601f1061098f576101008083540402835291602001916109ba565b820191906000526020600020905b81548152906001019060200180831161099d57829003601f168201915b5050505050908060020154908060030160009054906101000a900460ff16905084565b6001602052806000526040600020600091509050806000015490806001018054610a0690611102565b80601f0160208091040260200160405190810160405280929190818152602001828054610a3290611102565b8015610a7f5780601f10610a5457610100808354040283529160200191610a7f565b820191906000526020600020905b815481529060010190602001808311610a6257829003601f168201915b5050505050908060020154908060030160009054906101000a900460ff16905084565b6000604051905090565b600080fd5b600080fd5b600073ffffffffffffffffffffffffffffffffffffffff82169050919050565b6000610ae182610ab6565b9050919050565b610af181610ad6565b8114610afc57600080fd5b50565b600081359050610b0e81610ae8565b92915050565b600080fd5b600080fd5b6000601f19601f8301169050919050565b7f4e487b7100000000000000000000000000000000000000000000000000000000600052604160045260246000fd5b610b6782610b1e565b810181811067ffffffffffffffff82111715610b8657610b85610b2f565b5b80604052505050565b6000610b99610aa2565b9050610ba58282610b5e565b919050565b600067ffffffffffffffff821115610bc557610bc4610b2f565b5b610bce82610b1e565b9050602081019050919050565b82818337600083830152505050565b6000610bfd610bf884610baa565b610b8f565b905082815260208101848484011115610c1957610c18610b19565b5b610c24848285610bdb565b509392505050565b600082601f830112610c4157610c40610b14565b5b8135610c51848260208601610bea565b91505092915050565b60008060408385031215610c7157610c70610aac565b5b6000610c7f85828601610aff565b925050602083013567ffffffffffffffff811115610ca057610c9f610ab1565b5b610cac85828601610c2c565b9150509250929050565b600060208284031215610ccc57610ccb610aac565b5b600082013567ffffffffffffffff811115610cea57610ce9610ab1565b5b610cf684828501610c2c565b91505092915050565b6000819050919050565b610d1281610cff565b82525050565b6000602082019050610d2d6000830184610d09565b92915050565b6000819050919050565b610d4681610d33565b8114610d5157600080fd5b50565b600081359050610d6381610d3d565b92915050565b600060208284031215610d7f57610d7e610aac565b5b6000610d8d84828501610d54565b91505092915050565b610d9f81610d33565b82525050565b600081519050919050565b600082825260208201905092915050565b60005b83811015610ddf578082015181840152602081019050610dc4565b60008484015250505050565b6000610df682610da5565b610e008185610db0565b9350610e10818560208601610dc1565b610e1981610b1e565b840191505092915050565b60008115159050919050565b610e3981610e24565b82525050565b6000608082019050610e546000830187610d96565b8181036020830152610e668186610deb565b9050610e756040830185610d09565b610e826060830184610e30565b95945050505050565b610e9481610cff565b8114610e9f57600080fd5b50565b600081359050610eb181610e8b565b92915050565b610ec081610e24565b8114610ecb57600080fd5b50565b600081359050610edd81610eb7565b92915050565b60008060008060808587031215610efd57610efc610aac565b5b6000610f0b87828801610d54565b945050602085013567ffffffffffffffff811115610f2c57610f2b610ab1565b5b610f3887828801610c2c565b9350506040610f4987828801610ea2565b9250506060610f5a87828801610ece565b91505092959194509250565b600060208284031215610f7c57610f7b610aac565b5b6000610f8a84828501610aff565b91505092915050565b610f9c81610ad6565b82525050565b6000608082019050610fb76000830187610f93565b8181036020830152610fc98186610deb565b9050610fd86040830185610d09565b610fe56060830184610e30565b95945050505050565b60006020828403121561100457611003610aac565b5b600061101284828501610ea2565b91505092915050565b60006080820190506110306000830187610d09565b81810360208301526110428186610deb565b90506110516040830185610d09565b61105e6060830184610e30565b95945050505050565b7f456d706c6f79656520616c726561647920657869737473000000000000000000600082015250565b600061109d601783610db0565b91506110a882611067565b602082019050919050565b600060208201905081810360008301526110cc81611090565b9050919050565b7f4e487b7100000000000000000000000000000000000000000000000000000000600052602260045260246000fd5b6000600282049050600182168061111a57607f821691505b60208210810361112d5761112c6110d3565b5b50919050565b60008190508160005260206000209050919050565b60006020601f8301049050919050565b600082821b905092915050565b6000600883026111957fffffffffffffffffffffffffffffffffffffffffffffffffffffffffffffffff82611158565b61119f8683611158565b95508019841693508086168417925050509392505050565b6000819050919050565b60006111dc6111d76111d284610cff565b6111b7565b610cff565b9050919050565b6000819050919050565b6111f6836111c1565b61120a611202826111e3565b848454611165565b825550505050565b600090565b61121f611212565b61122a8184846111ed565b505050565b5b8181101561124e57611243600082611217565b600181019050611230565b5050565b601f8211156112935761126481611133565b61126d84611148565b8101602085101561127c578190505b61129061128885611148565b83018261122f565b50505b505050565b600082821c905092915050565b60006112b660001984600802611298565b1980831691505092915050565b60006112cf83836112a5565b9150826002028217905092915050565b6112e882610da5565b67ffffffffffffffff81111561130157611300610b2f565b5b61130b8254611102565b611316828285611252565b600060209050601f8311600181146113495760008415611337578287015190505b61134185826112c3565b8655506113a9565b601f19841661135786611133565b60005b8281101561137f5784890151825560018201915060208501945060208101905061135a565b8683101561139c5784890151611398601f8916826112a5565b8355505b6001600288020188555050505b505050505050565b600060208201905081810360008301526113cb8184610deb565b905092915050565b7f4e6f7420616e2061637469766520656d706c6f79656500000000000000000000600082015250565b6000611409601683610db0565b9150611414826113d3565b602082019050919050565b60006020820190508181036000830152611438816113fc565b9050919050565b6000819050919050565b61145a61145582610cff565b61143f565b82525050565b60008160601b9050919050565b600061147882611460565b9050919050565b600061148a8261146d565b9050919050565b6114a261149d82610ad6565b61147f565b82525050565b60006114b48285611449565b6020820191506114c48284611491565b6014820191508190509392505050565b7f547261696e696e6720616c726561647920636f6d706c65746564000000000000600082015250565b600061150a601a83610db0565b9150611515826114d4565b602082019050919050565b60006020820190508181036000830152611539816114fd565b9050919050565b7f547261696e696e6720646f6573206e6f74206578697374000000000000000000600082015250565b6000611576601783610db0565b915061158182611540565b602082019050919050565b600060208201905081810360008301526115a581611569565b9050919050565b60006020820190506115c16000830184610d96565b92915050565b7f547261696e696e6720616c726561647920657869737473000000000000000000600082015250565b60006115fd601783610db0565b9150611608826115c7565b602082019050919050565b6000602082019050818103600083015261162c816115f0565b9050919050565b6000606082019050818103600083015261164d8186610deb565b905061165c6020830185610d09565b6116696040830184610e30565b94935050505056fea264697066735822122058a64dde23d2a9540f152c8816ad91ccb756d1f7ffbd5dcde20cd5c99c82aae964736f6c63430008130033",
  "linkReferences": {},
  "deployedLinkReferences": {}
}